S01200004C43445F4472697665722E7372656374
S113000071C0000079C0000077C0000075C0000016
S113001073C0000071C000006FC000006DC000001C
S11300206BC0000069C0000067C0000065C000002C
S113003063C0000061C000005FC000005DC000003C
S11300405BC0000059C0000057C0000055C000004C
S113005053C0000051C000004FC000004DC000005C
S11300604BC0000049C0000047C0000045C000006C
S113007043C0000041C000003FC000003DC000007C
S11300803BC0000039C0000037C0000035C000008C
S113009033C0000031C000002FC000002DC000009C
S11300A02BC0000029C0000027C0000025C00000AC
S11300B023C0000021C000001FC000001DC00000BC
S11300C01BC0000019C0000017C0000015C00000CC
S11300D013C0000011C000000FC000000DC00000DC
S11300E00BC0000011241FBECFEFD1E2DEBFCDBF95
S11300F000E00CBFD3D00AC183CFE2E0F1E08081FD
S113010080648083000000000000000080818F7BF9
S1130110808300000000000000000895E2E0F1E0A8
S1130120208190E0AC01440F551F4871277E242B99
S113013020832EB1AC01440F551F440F551F487046
S1130140277F242B2EB924B3880F991F829592956B
S1130150907F9827807F98278072922F9F7D892B8C
S113016084BB0895CF93C82F8FE39FE10197F1F7E4
S113017000C00000E2E0F1E080818F7980838C2F61
S113018082958F70CBDFB9DF8C2FC8DFB6DFCF91BC
S11301900895882331F0E2E0F1E080818062808379
S11301A00895E2E0F1E080818F7D80830895CF930C
S11301B0C82F8FE39FE10197F1F700C00000E2E050
S11301C0F1E080818F7B808381E090E0E2DF8C2FFF
S11301D082958F70A3DF91DF8C2FA0DF8EDFCF910C
S11301E00895E1E0F1E08081886780836B9A9D9AAD
S11301F02FEF80E792E0215080409040E1F700C06B
S11302000000A59A739A79DF8FE39CE90197F1F7CF
S113021000C0000072DF8FE39CE90197F1F700C092
S113022000006BDF8FE39CE90197F1F700C0000049
S1130230A59863DF88E296DF88E094DF81E092DFAF
S113024086E090DF8FE08ECF0895CF93DF93EC01AB
S11302508881882329F02196AADF89918111FCCF16
S1130260DF91CF910895CF93DF93CDB7DEB7279772
S11302700FB6F894DEBF0FBECDBF4AE0BE016F5F7C
S11302807F4F11D0CE010196E0DF27960FB6F89488
S1130290DEBF0FBECDBFDF91CF910895A2DF89E00D
S11302A090E0E1DFFFCFBB274A3031F4992322F4F9
S11302B0BDE2909581959F4F01C0BB27FB01552757
S11302C0AA27880F991FAA1FA41710F0A41B8395AF
S11302D05051B9F7A05DAA3308F0A95DA193009726
S11302E079F7B111B1931192CB0100C0DC01FC018B
S11302F0672F71917723E1F7329704C07C916D9356
S113030070836291AE17BF07C8F30895F894FFCFC6
S9030000FC
